:060000000A128A11122809
:10000800FE00030EF2000408F3000A08F40083124D
:1000180003137F08F5000A168A11AF2A0A128A11FB
:100028001528F601F701F801F90183160313D30126
:10003800D401D501D601D701D801D901DA01DB01F4
:10004800DC01DD01DE0183010A128A11E22A831232
:100058000313CC00CC1F8A29CC09CC0A4C08803A5F
:10006800123E031CF9280330C7004708B0000A30C5
:10007800A7000030A8004C08A200A301A21BA303FC
:100088006430A0000030A1000A168A11FE220A126C
:100098008A11831203132108AA01AA072008A901BB
:1000A800A9070A168A114D230A128A11831203130B
:1000B8002708093E0A168A1144210A128A11293E84
:1000C80084000A168A110A200A128A11831203135D
:1000D800B4000A168A110A200A128A11B5000A16F3
:1000E8008A110A200A128A11B6000330C80048088B
:1000F800B0006430A7000030A8004C08A900AA018D
:10010800A91BAA030A168A114D230A128A118312FF
:1001180003132708123E0A168A1144210A128A116B
:10012800293E84000A168A110A200A128A118312AB
:100138000313B7000A168A110A200A128A11B80096
:100148000A168A110A200A128A11B9000A168A1197
:1001580024260A128A11831203133408C9003508A9
:10016800CA003608CB000330C7004708B0004C0867
:10017800A200A301A21BA3030A30A0000030A10023
:100188000A168A11FE220A128A1183120313200802
:100198000A168A1144210A128A11293E84000A1675
:1001A8008A110A200A128A1183120313B4000A164C
:1001B8008A110A200A128A11B5000A168A110A2021
:1001C8000A128A11B6004908B7004A08B8004B0855
:1001D800B9000A168A112426831203133408C400AE
:1001E8003508C5003608C60008004C08803A753E38
:1001F800031C6B290330C7004708B0004C08A20055
:10020800A301A21BA3030A30A0000030A1000A1614
:100218008A11FE220A128A118312031320080A1671
:100228008A1144210A128A11293E84000A168A1169
:100238000A200A128A1183120313B4000A168A11BB
:100248000A200A128A11B5000A168A110A200A120F
:100258008A11B6000330C8004808B0000A30A70069
:100268000030A8004C08A900AA01A91BAA030A1675
:100278008A114D230A128A11831203132708093E93
:100288000A168A1144210A128A11293E84000A1684
:100298008A110A200A128A1183120313B7000A1658
:1002A8008A110A200A128A11B8000A168A110A202D
:1002B8000A128A11B9000A168A1124268312031316
:1002C8003408C4003508C5003608C60008000330E5
:1002D800C7004708B0004C080A168A1144210A12C0
:1002E8008A11293E84000A168A110A200A128A11E4
:1002F80083120313C4000A168A110A200A128A11EB
:10030800C5000A168A110A20C60008004C08803A5F
:10031800123E031C512A0330C7004708B0000A30B8
:10032800A7000030A8004C08A200A301A21BA30349
:100338006430A0000030A1000A168A11FE220A12B9
:100348008A11831203132108AA01AA072008A90108
:10035800A9070A168A114D230A128A118312031358
:100368002708093E0A168A1144210A128A11503EAA
:1003780084000A168A110A200A128A1183120313AA
:10038800B4000A168A110A200A128A11B5000A1640
:100398008A110A200A128A11B6000330C8004808D8
:1003A800B0006430A7000030A8004C08A900AA01DA
:1003B800A91BAA030A168A114D230A128A1183124D
:1003C80003132708123E0A168A1144210A128A11B9
:1003D800503E84000A168A110A200A128A118312D2
:1003E8000313B7000A168A110A200A128A11B800E4
:1003F8000A168A110A200A128A11B9000A168A11E5
:1004080024260A128A11831203133408C9003508F6
:10041800CA003608CB000330C7004708B0004C08B4
:10042800A200A301A21BA3030A30A0000030A10070
:100438000A168A11FE220A128A118312031320084F
:100448000A168A1144210A128A11503E84000A169B
:100458008A110A200A128A1183120313B4000A1699
:100468008A110A200A128A11B5000A168A110A206E
:100478000A128A11B6004908B7004A08B8004B08A2
:10048800B9000A168A112426831203133408C400FB
:100498003508C5003608C60008004C08803A753E85
:1004A800031CC32A0330C7004708B0004C08A20049
:1004B800A301A21BA3030A30A0000030A1000A1662
:1004C8008A11FE220A128A118312031320080A16BF
:1004D8008A1144210A128A11503E84000A168A1190
:1004E8000A200A128A1183120313B4000A168A1109
:1004F8000A200A128A11B5000A168A110A200A125D
:100508008A11B6000330C8004808B0000A30A700B6
:100518000030A8004C08A900AA01A91BAA030A16C2
:100528008A114D230A128A11831203132708093EE0
:100538000A168A1144210A128A11503E84000A16AA
:100548008A110A200A128A1183120313B7000A16A5
:100558008A110A200A128A11B8000A168A110A207A
:100568000A128A11B9000A168A1124268312031363
:100578003408C4003508C5003608C6000800033032
:10058800C7004708B0004C080A168A1144210A120D
:100598008A11503E84000A168A110A200A128A110A
:1005A80083120313C4000A168A110A200A128A1138
:1005B800C5000A168A110A20C6000800FF308316F3
:1005C800031386000F308700880101170B168B1064
:1005D8003030831203139000831603130C140B1787
:1005E8008B170B30831203138F00DC308E0010142E
:1005F8000A168A1194210A128A110A168A11EB2006
:100608000A128A11EA2B013057065804031DEA2BF7
:10061800D701D8010130D3070318D40A0030D40712
:10062800B23083120313EC006C08E700831603133F
:10063800540883120313E901E907831603135308C7
:1006480083120313E801E807D9300A128A15222019
:100658000A128A118A300A168A111E210A128A1170
:10066800D93083120313A7000030A8000A168A1194
:1006780020220A128A11C9300A168A111E210A126A
:100688008A110A3083160313CD000030CE004E08BD
:10069800803AFF0080307F02031D542B14304D0236
:1006A80003186F2B20300A168A1131210A128A1179
:1006B800013083160313CD070318CE0A0030CE0786
:1006C8004E08803AFF0080307F02031D6D2B1430E6
:1006D8004D02031C562BC9300A168A111E210A1214
:1006E8008A119630DB2BD301D401B2308312031365
:1006F800EC006C08E70083160313540883120313F5
:10070800E901E90783160313530883120313E80169
:10071800E807D9300A128A1522200A128A118A306B
:100728000A168A111E210A128A11D930831203135C
:10073800A7000030A8000A168A1120220A128A117E
:10074800C9300A168A111E210A128A110A30831624
:100758000313CF000030D0005008803AFF008030EB
:100768007F02031DB92B14304F020318D42B2030FD
:100778000A168A1131210A128A11013083160313CD
:10078800CF070318D00A0030D0075008803AFF007E
:1007980080307F02031DD22B14304F02031CBB2B69
:1007A800C9300A168A111E210A128A11AD30831225
:1007B8000313A7008030A8000A168A1120220A1203
:1007C8008A110A128A117D270A128A1180300A16A4
:1007D8008A111E210A128A118C3083120313A70072
:1007E8008030A8000A168A1120220A128A11C03005
:1007F8000A168A111E210A128A119F3083120313C6
:10080800A7008030A8000A168A1120220A128A112D
:1008180094300A168A111E210A128A118230831214
:100828000313A7008030A8000A168A1120220A1292
:100838008A11013083160313550656040319072B32
:10084800023083160313550656040319772B033019
:100858008316031355065604031DEA2B0130570669
:100868005804031DEA2BD701D801FF30D30703181A
:10087800D40AFF30D407B23083120313EC006C089B
:10088800E70083160313540883120313E901E907E9
:1008980083160313530883120313E801E807D930BA
:1008A8000A128A1522200A128A118A300A168A1117
:1008B8001E210A128A11D93083120313A7000030AF
:1008C800A8000A168A1120220A128A11C9300A16AB
:1008D8008A111E210A128A110A3083160313D100C5
:1008E8000030D2005208803AFF0080307F02031D9A
:1008F8007F2C1430510203189A2C20300A168A11C2
:1009080031210A128A11013083160313D107031803
:10091800D20A0030D2075208803AFF0080307F02A6
:10092800031D982C14305102031C812CC9300A165F
:100938008A111E210A128A117730DB2B83120313C6
:10094800D3006E305302031C8A2D0330C7004708BA
:10095800B0000A30A7000030A8005308C800C90139
:100968004808A2004908A3006430A0000030A10094
:100978000A168A11FE220A128A1183120313210809
:10098800AA01AA072008A901A9070A168A114D2356
:100998000A128A11831203132708093E0A168A11BC
:1009A80044210A128A11293E84000A168A110A2053
:1009B8000A128A1183120313B4000A168A110A2034
:1009C8000A128A11B5000A168A110A200A128A1117
:1009D800B6000330CA004A08B0006430A7000030EF
:1009E800A8005308CB00CC014B08A9004C08AA006A
:1009F8000A168A114D230A128A1183120313270833
:100A0800123E0A168A1144210A128A11293E8400CC
:100A18000A168A110A200A128A1183120313B700D0
:100A28000A168A110A200A128A11B8000A168A11AF
:100A38000A200A128A11B9000A168A1124260A12F3
:100A48008A11831203133408D0003508D100360800
:100A5800D2000330C7004708B0005308C800C901D6
:100A68004808A2004908A3000A30A0000030A100ED
:100A78000A168A11FE220A128A1183120313200809
:100A88000A168A1144210A128A11293E84000A167C
:100A98008A110A200A128A1183120313B4000A1653
:100AA8008A110A200A128A11B5000A168A110A2028
:100AB8000A128A11B6005008B7005108B800520847
:100AC800B9000A168A1124260A128A1183120313FE
:100AD8003408CD003508CE003608CF000030B40009
:100AE8000030B5003F30B6004D08B7004E08B800DA
:100AF8004F08B9000A168A112426831203133408F2
:100B0800C4003508C5003608C60008000B3053027B
:100B1800031C182E0330C7004708B0005308C8004C
:100B2800C9014808A2004908A3000A30A000003003
:100B3800A1000A168A11FE220A128A1183120313CF
:100B480020080A168A1144210A128A11293E8400B3
:100B58000A168A110A200A128A1183120313B40092
:100B68000A168A110A200A128A11B5000A168A1171
:100B78000A200A128A11B6000330CA004A08B000D7
:100B88000A30A7000030A8005308CB00CC014B085E
:100B9800A9004C08AA000A168A114D230A128A11C4
:100BA800831203132708093E0A168A1144210A12E0
:100BB8008A11293E84000A168A110A200A128A110B
:100BC80083120313B7000A168A110A200A128A111F
:100BD800B8000A168A110A200A128A11B9000A16E0
:100BE8008A1124260A128A11831203133408D000AA
:100BF8003508D1003608D2000030B4000030B50006
:100C08003F30B6005008B7005108B8005208B90084
:100C18000A168A112426831203133408C4003508DF
:100C2800C5003608C60008000030B4000030B50022
:100C38003F30B6000330C7004708B00053080A1613
:100C48008A1144210A128A11293E84000A168A113F
:100C58000A200A128A1183120313B7000A168A118E
:100C68000A200A128A11B8000A168A110A200A12E2
:100C78008A11B9000A168A1124268312031334082C
:100C8800C4003508C5003608C600080020308400B6
:100C98008313000883120313A600840A0008A70020
:100CA800840A0008A800840A0008A9000310280D77
:100CB800290DAA002A08B300B308031D6C2E0030C2
:100CC800A3000030A2000030A1000030A0000800FE
:100CD800233084000008A600840A0008A700840ABC
:100CE8000008A800840A0008A9000310280D290D8F
:100CF800AA002A08B200B208031D8B2E0030A300F8
:100D08000030A2000030A1000030A0000800203010
:100D1800840000308004840A00308004840A803013
:100D28008004840A0030800420308400FF3080056D
:100D3800840AFF308005840AFF308005840A003069
:100D480080052330840000308004840A0030800449
:100D5800840A80308004840A0030800423308400B0
:100D6800FF308005840AFF308005840AFF30800543
:100D7800840A003080050030B1000030B000003037
:100D8800AF000030AE007F30B302A0303207A600BB
:100D98002608B3022030A6002608B2000130A600BB
:100DA8000310AE0DAF0DB00DB10DA60BD42E233030
:100DB80084000008A600840A0008A700840A000826
:100DC800A800840A0008A900203084000008AA00AE
:100DD800840A0008AB00840A0008AC00840A0008F2
:100DE800AD0029082D02031D032F28082C02031D1E
:100DF800032F27082B02031D032F26082A02031C92
:100E0800282F233084000008A600840A0008A700C1
:100E1800840A0008A800840A0008A9002030840079
:100E280026088002840A2708031C270F8002840AE8
:100E38002808031C280F8002840A2908031C290A91
:100E48008002033084022E14203084000310800DA9
:100E5800840A800D840A800D840A800D840384032B
:100E680084030130B202031DD22EB31F592F330859
:100E7800803A9F3E0318492F0030A3000030A2009B
:100E88000030A1000030A000080001300310B10CB0
:100E9800B00CAF0CAE0CFF3E031D4A2F0130A6006C
:100EA8002608B3070319742F492F20303302031C77
:100EB800712F0030A3000030A2000030A1000030E4
:100EC800A00008000130A6000310AE0DAF0DB00D54
:100ED800B10DA60B682F0130B302B308031D662FAE
:100EE8003108A3003008A2002F08A1002E08A00096
:100EF80008000A168A11FE200A128A1183120313A7
:100F0800210883160313CC01CC078312031320088E
:100F180083160313CB01CB07283083120313B400C5
:100F2800A030B5003B30B600831603134C0883127B
:100F38000313A901A907831603134B08831203138C
:100F4800A801A8070A168A1157210A128A118312C2
:100F580003132808B7002908B8002A08B9000A1698
:100F68008A1124260A128A1183120313340883165D
:100F78000313C80083120313350883160313C9002B
:100F880083120313360883160313CA00A63083128C
:100F98000313EB006B08E70083160313480883125A
:100FA8000313E80083160313490883120313E900A7
:100FB800831603134A0883120313EA00D9300A126E
:100FC8008A1522200A128A119D300A168A111E21BA
:100FD8000A128A11D93083120313A7000030A8001F
:080FE8000A168A1120220800FC
:10100C00803083120313E3066408D4006508D5000E
:10101C006608D6006108D7006208D8006308D900BA
:10102C000A168A11F726831203135408E100550897
:10103C00E2005608E300080083160313C100683071
:10104C00A0002008B500013083120313E707FF301E
:10105C00670784000A168A110A200A128A15831659
:10106C000313A0002008C700C7080319FB2F47086B
:10107C00253A03194D284708A00041088400200890
:10108C00831380000130A0002008C1072928B60175
:10109C00B70183120313670884000A168A110A2009
:1010AC000A128A152E3A031DB32883160313371719
:1010BC000130A000200883120313E70783160313E3
:1010CC00C201C3018312670884000A168A110A2020
:1010DC000A128A150A168A110E210A128A15031C85
:1010EC00BB2883160313430883120313A101A10722
:1010FC0083160313420883120313A001A0070A30BE
:10110C00A2000030A3000A168A116F210A128A1558
:10111C0083120313670884000A168A110A200A1224
:10112C008A15200783160313A00000300318013022
:10113C0083120313210783160313A1002008D03E4A
:10114C00C20021080318013EFF3EC3000130A0007D
:10115C00200883120313E707682883160313C201C0
:10116C00C3013716BB283715D72801308312031358
:10117C00E707FF30670784000A168A110A200A1253
:10118C008A1583160313C700003A0319FB2F643A20
:10119C000319D728023A0319B9280F3A0319D7288B
:1011AC00292800303605A00007303705A10021089A
:1011BC0020040319C32E371EE7280630C200003066
:1011CC00C3003508840083130008C400840A000897
:1011DC00C500840A0008C6000330A0002008B5072B
:1011EC00440883120313A0008316031345088312CB
:1011FC000313A10083160313460883120313A200E2
:10120C000030A3000030A4000030A5000A168A119B
:10121C00AA230A128A1503184029831603134408BB
:10122C0083120313A00083160313450883120313C0
:10123C00A10083160313460883120313A2000A1697
:10124C008A11F4200A128A158312031320088316BC
:10125C000313C40083120313210883160313C50060
:10126C0083120313220883160313C6000330B6043B
:10127C000030B70483160313BB01BC0146084504B8
:10128C0044040319682AC430840083130008A000A6
:10129C00840A0008A100840A0008A200840A00083D
:1012AC00A3000F300310A30CA20CA10CA00CFF3E4A
:1012BC00031D5829FF302005A40000302105A5008E
:1012CC002408823EBB0025080318013EFF3EBC00EB
:1012DC00FF30BB070318BC0AFF30BC070330831276
:1012EC000313A0000030A100831603133C088312E3
:1012FC000313A301A307831603133B0883120313E1
:10130C00A201A2070A168A116F210A128A158312EA
:10131C000313210883160313BC01BC0783120313A8
:10132C00200883160313BB01BB070A308312031377
:10133C00A7000030A800831603133C088312031384
:10134C00AA01AA07831603133B0883120313A901EE
:10135C00A9070A168A114D230A128A158312031340
:10136C00280883160313BC01BC0783120313270838
:10137C0083160313BB01BB07BC1FCA29FF30BB0775
:10138C000318BC0AFF30BC073B03FF3A0A128A1150
:10139C002B200A128A158312031344088316031395
:1013AC00B80083120313450883160313B900831284
:1013BC000313460883160313BA004408831203135D
:1013CC00B40083160313450883120313B500831668
:1013DC000313460883120313B6008316031338084D
:1013EC0083120313B70083160313390883120313F4
:1013FC00B800831603133A0883120313B9000A16B4
:10140C008A1124260A128A158312031334088316B0
:10141C000313B80083120313350883160313B900A2
:10142C0083120313360883160313BA003808831289
:10143C000313A00083160313390883120313A100AE
:10144C00831603133A0883120313A2000030A3007F
:10145C008030A4003F30A5000A168A11AA230A1274
:10146C008A150318412AFF3083160313BB07031890
:10147C00BC0AFF30672A8316031338088312031340
:10148C00A00083160313390883120313A1008316DB
:10149C0003133A0883120313A2000030A300203078
:1014AC00A4004130A5000A168A11AA230A128A1533
:1014BC00031C682A013083160313BB070318BC0AEC
:1014CC000030BC07831603134308803AFF008030BA
:1014DC007F02031D732A0D3042020318AE2A8316B5
:1014EC00031342080A128A11A2240A128A158312C3
:1014FC0003134408D4004508D5004608D6008316CB
:10150C000313440883120313D700831603134508EF
:10151C0083120313D8008316031346088312031394
:10152C00D9000A168A11F7260A128A158312031398
:10153C00540883160313C40083120313550883162F
:10154C000313C50083120313560883160313C60036
:10155C00831603133C08803AFF0080307F02031D82
:10156C00B92A0A303B020318EC2A831603134608E7
:10157C004504440403197B2B440883120313CD0048
:10158C0083160313450883120313CE00831603132B
:10159C00460883120313CF000A168A11D3240A12A9
:1015AC008A158312031350084F044E044D04031D77
:1015BC007B2B831603133C08803AFF0080307F029C
:1015CC00031DEA2A02303B02031C7B2B83160313F8
:1015DC00380883120313A0008316031339088312EF
:1015EC000313A100831603133A0883120313A200FA
:1015FC007030A3008930A4004030A5000A168A116F
:10160C00AA230A128A1503180D2BF7300E2BF8306B
:10161C0083160313BB070318BC0AFF30BC073B0837
:10162C000A128A112B200A128A15831203134408FA
:10163C0083160313B8008312031345088316031390
:10164C00B90083120313460883160313BA00440827
:10165C0083120313A000831603134508831203138C
:10166C00A10083160313460883120313A2008316EA
:10167C000313380883120313A300831603133908CA
:10168C0083120313A400831603133A088312031363
:10169C00A5000A168A1161250A128A1583120313F2
:1016AC00230883160313AC0083120313220883163A
:1016BC000313AB0083120313210883160313AA0030
:1016CC0083120313200883160313A9002C08C000EF
:1016DC002B08BF002A08BE002908BD000030C4003A
:1016EC000030C5000030C600F82B831603134408E5
:1016FC0083120313CD0083160313450883120313BF
:10170C00CE0083160313460883120313CF000A1668
:10171C008A11D3240A128A158312031350088316D4
:10172C000313C000831203134F0883160313BF0067
:10173C00831203134E0883160313BE008312031384
:10174C004D0883160313BD00400883120313AB002E
:10175C00831603133F0883120313AA008316031383
:10176C003E0883120313A900831603133D0883124A
:10177C000313A8000A168A11BC210A128A158312B7
:10178C0003132808E1002908E2002A08E300831665
:10179C000313440883120313E40083160313450850
:1017AC0083120313E50083160313460883120313F5
:1017BC00E6000A128A1506200A128A1583120313F0
:1017CC00610883160313C400831203136208831683
:1017DC000313C50083120313630883160313C60097
:1017EC00BB01BC01C701C70A47080A3A03193A2CC6
:1017FC004708A00001300310A00DFF3E031D012C73
:10180C000310200D013E84000A168A110A200A12C8
:10181C008A15A1000A168A110A200A128A15A2003A
:10182C000A168A110A200A128A15A3000A168A11AE
:10183C000A200A128A15A40024084002031D302C29
:10184C0023083F02031D302C22083E02031D302CBE
:10185C0021083D02031C3A2C0130A0002008C707C8
:10186C0047080A3A031DFE2B03303605A000003052
:10187C003705A1002108200403194F2C2D30A0009E
:10188C00410884002008831380000130A000200848
:10189C00C107FF30A0002008C7074708FF3A03190B
:1018AC00072D4708A00001300310A00DFF3E031DBB
:1018BC005A2C0310200D013E84000A168A110A20AE
:1018CC000A128A1583120313A0000A168A110A2021
:1018DC000A128A15A1000A168A110A200A128A1500
:1018EC00A2000A168A110A200A128A15A30083166E
:1018FC000313400883120313A700831603133F0836
:10190C0083120313A600831603133E0883120313DA
:10191C00A500831603133D0883120313A4000A16B3
:10192C008A1109240A128A158312031323088316B9
:10193C000313B00083120313220883160313AF00A2
:10194C0083120313210883160313AE0083120313AF
:10195C00200883160313AD00003083120313B1006B
:10196C000030B0000030AF000A30AE008316031315
:10197C00300883120313B500831603132F08831248
:10198C000313B400831603132E0883120313B3003E
:10199C00831603132D0883120313B2000A168A113F
:1019AC0061220A128A15831203133108831603135A
:1019BC00B00083120313300883160313AF00831295
:1019CC0003132F0883160313AE00831203132E0880
:1019DC0083160313AD002D08303E452C3030831692
:1019EC000313A000410884002008831380000130F9
:1019FC00A0002008C107FF30BB070318BC0AFF304A
:101A0C00BC073C08803AFF0080307F02031D102D7C
:101A1C0001303B020318F42C831603134308803A5D
:101A2C00FF0080307F02031D1D2D09304202031C74
:101A3C00232D083083160313262D83160313420817
:101A4C00A0002008C7004708A000A101A01BA1030B
:101A5C002008C2022108031CC303C3024708031950
:101A6C00422D2E30A00041088400200883138000F2
:101A7C000130A0002008C10747080A128A112B2048
:101A8C000A128A1583120313440883160313A60043
:101A9C0083120313450883160313A7008312031341
:101AAC00460883160313A800260883120313B700F5
:101ABC0083160313270883120313B800831603132A
:101ACC00280883120313B9008316031344088312E6
:101ADC000313B40083160313450883120313B500D4
:101AEC0083160313460883120313B6000A168A11D1
:101AFC0024260A128A15831203133408CD003508E4
:101B0C00CE003608CF000A168A11D3240A128A1581
:101B1C0083120313500883160313C000831203139C
:101B2C004F0883160313BF00831203134E0883164A
:101B3C000313BE00831203134D0883160313BD0059
:101B4C00FF30A0002008C7074708FF3A0319BE2E34
:101B5C004708A00001300310A00DFF3E031DB12D5E
:101B6C000310200D013E84000A168A110A200A1265
:101B7C008A1583120313A0000A168A110A200A126E
:101B8C008A15A1000A168A110A200A128A15A200C7
:101B9C000A168A110A200A128A15A3008316031347
:101BAC00400883120313A700831603133F08831204
:101BBC000313A600831603133E0883120313A50018
:101BCC00831603133D0883120313A4000A168A110B
:101BDC0009240A128A15831203132308831603138C
:101BEC00B40083120313220883160313B300831269
:101BFC000313210883160313B20083120313200866
:101C0C0083160313B100003083120313B1000030AC
:101C1C00B0000030AF000A30AE0083160313340856
:101C2C0083120313B50083160313330883120313B3
:101C3C00B40083160313320883120313B300831604
:101C4C000313310883120313B2000A168A1161229E
:101C5C000A128A1583120313310883160313B40076
:101C6C0083120313300883160313B3008312031378
:101C7C002F0883160313B200831203132E08831646
:101C8C000313B1003108303EA00041088400200845
:101C9C00831380000130A0002008C1074708A00072
:101CAC0001300310A00DFF3E031D572E0310200D15
:101CBC00013E84000A168A110A200A128A15831220
:101CCC000313AE000A168A110A200A128A15AF00F5
:101CDC000A168A110A200A128A15B0000A168A11ED
:101CEC000A200A128A15B1008316031340088312C6
:101CFC000313B500831603133F0883120313B400B8
:101D0C00831603133E0883120313B30083160313C5
:101D1C003D0883120313B2000A168A1161220A12BB
:101D2C008A1583120313310883160313C000831220
:101D3C000313300883160313BF00831203132F08F9
:101D4C0083160313BE00831203132E08A32D303009
:101D5C00A000410884002008831380000130A000FB
:101D6C002008C107FF30C2070318C30AFF30C3079E
:101D7C004308420403192928AD2E35088400831327
:101D8C000008A000840A0008A1002008BD0021085A
:101D9C00BE000030BE1BFF30BF00C0000230A000F0
:101DAC002008B507C01FE92E0330B6040030B70475
:101DBC00BD09BE09BF09C009BD0A0319BE0A031932
:101DCC00BF0A0319C00A43084204031DF92E400838
:101DDC003F043E043D04031DF92E0130C2070318D5
:101DEC00C30A0030C307C701C70A47080A3A0319D8
:101DFC003B2F4708A00001300310A00DFF3E031D30
:101E0C00022F0310200D013E84000A168A110A20AD
:101E1C000A128A15A1000A168A110A200A128A15BA
:101E2C00A2000A168A110A200A128A15A3000A16A1
:101E3C008A110A200A128A15A40024084002031DE4
:101E4C00312F23083F02031D312F22083E02031DB0
:101E5C00312F21083D02031C3B2F0130A00020082C
:101E6C00C70747080A3A031DFF2E4708A000A10127
:101E7C00A01BA1032108803AA2004308803A220249
:101E8C00031D4A2F420820020318532F83160313F5
:101E9C004208A0002008C7006D2F831603134708C3
:101EAC00A000A101A01BA1034308803AA2002108B5
:101EBC00803A2202031D642F2008420203186D2F62
:101ECC00831603134708C200C301C21BC3030330AC
:101EDC00831603133605A00000303705A100210836
:101EEC0020040319842F2D30A00041088400200801
:101EFC00831380000130A0002008C107FF30C20707
:101F0C000318C30AFF30C307FF304306031D902F8D
:101F1C00FF30420603192928003083120313B10045
:101F2C000030B0000030AF000A30AE00831603134F
:101F3C004208A00001300310A00DFF3E031DA12F8D
:101F4C000310200D013E84000A168A110A200A1281
:101F5C008A1583120313A0000A168A110A200A128A
:101F6C008A15A1000A168A110A200A128A15A200E3
:101F7C000A168A110A200A128A15A3008316031363
:101F8C00400883120313A700831603133F08831220
:101F9C000313A600831603133E0883120313A50034
:101FAC00831603133D0883120313A4000A168A1127
:101FBC0009240A128A15831203132308B500220878
:101FCC00B4002108B3002008B2000A168A1161225D
:101FDC000A128A15831203132E08303E831603133C
:101FEC00A1002108C70047087A2F410884008313F9
:101FFC0080010800FF1B0A2883137F188317000831
:10200C00840A0319FF0A080010308A000408840AA5
:10201C008207003401340034003400340A340034B4
:10202C00003400346434003400340034E8340334B5
:10203C00003400341034273400340034A034863497
:10204C0001340034403442340F340034803496343C
:10205C00983400340034E134F53405340034CA3497
:10206C009A343B34003480343F34CD34CC343D345A
:10207C00D73423343C34123483343A34B734D13427
:10208C003834C63427343734383486343534C03495
:10209C00D6343334CC342B34323470348934303439
:1020AC00E734DB342E34E5343C341E344234A23471
:1020BC000D34003480343F34003420344134003447
:1020CC00C834423400347A34443440341C344634FA
:1020DC005034C3344734243474344934973418346A
:1020EC004B34BC34BE344C346B346E344E34033409
:1020FC00153450347934AD346034F334493471349C
:10210C0043344F3455344E345434203444344F34E7
:10211C0057344E34003456346F346C347434613468
:10212C00673465343A342034003443346F347534B6
:10213C006E347434653472343A342034003443349D
:10214C004F3455344E3454342034553450340034D8
:10215C004D346F34643465343A34203400342534CF
:10216C002E34323466342034563400345A344534E8
:0C217C0052344F340034253464340034F5
:1021D6008030831603139F004130831203139F0040
:1021E600080083120313220821042004031908009F
:1021F6008030A2060800831203131F151F19012938
:102206001E08A101A107831603131E0883120313D8
:10221600A001A007080083120313A100A0013A3011
:10222600210203181C2930302102031C1C29A0019D
:10223600A00A200C080083120313A60026088800B3
:102246000712871207170130A0000030A1000A16F6
:102256008A11EB2183120313071308008312031359
:10226600A600260888000716871207170130A00067
:102276000030A1000A168A11EB21831203130713FB
:10228600080083120313B300B201331C4E29300831
:10229600B1003108B2070310B00D0310B30CB30838
:1022A600031D482932080800831203132808A000DA
:1022B6002908A100A2018E30AB002B08A300A401BF
:1022C6000A168A116924831203132008A80021081C
:1022D600A9002208AA00080083120313A401A5017D
:1022E600201C7B292208A4070318A50A2308A50792
:1022F60001300310A20DA30DFF3E031D7C29013002
:102306000310A10CA00CFF3E031D83292108200405
:10231600031D73292508A101A1072408A001A00710
:102326000800013083120313A0000030A1000A1632
:102336008A11EB210A168A1138300A168A111E21D3
:102346000A168A1108300A168A111E210A168A11DF
:1023560001300A168A111E210A168A1106300A163B
:102366008A111E210A168A110C300A168A111E219C
:1023760008008E3083120313AC002C08AD00FF302A
:102386002B050319D42901300310AB0CAA0CA90C98
:10239600A80CFF3E031DC7290130AC002C08AD0771
:1023A600C2292808A0002908A1002A08A2002D0891
:1023B600AC002C08A300A4010A168A116924831212
:1023C60003132008A8002108A9002208AA00080073
:1023D600831203132108A301A3072008A201A20761
:1023E6002308220403190800A401A5012508803A40
:1023F600FF0081307F02031D022A003024020318E9
:10240600172A013083120313A4070318A50A003004
:10241600A5072508803AFF0081307F02031D152A93
:1024260000302402031C042AFF3083120313A20780
:102436000318A30AFF30A307F32983120313AC0181
:10244600AD012C082707AA002808A9000318A90A25
:10245600AC1BA903831203132908AB002B08FF004A
:102466002A0884000A168A1100200A168A110038E2
:10247600031908002C082707AA002808A900031832
:10248600A90AAC1BA903831203132908AB002B0866
:10249600FF002A0884000A168A1100200A168A11EB
:1024A6000A168A1131210A168A1101308312031382
:1024B600AC070318AD0A0030AD07242A83120313B4
:1024C600310830042F042E040319A62AB701B70ACF
:1024D600B11B7B2A0130B6000310AE0DAF0DB00D57
:1024E600B10DB60B6F2A0130B6003608B7076B2A56
:1024F60031083502031D892A30083402031D892A52
:102506002F083302031D892A2E083202031C992A3A
:102516002E08B2022F08031C2F0FB3023008031C2B
:10252600300FB4023108031C310FB502013003101D
:10253600B10CB00CAF0CAE0CFF3E031D9A2A013055
:10254600B702031D7B2A3508B1003408B0003308F2
:10255600AF003208AE0008008B138B1CD52A8B10F7
:1025660007080F39F000F1017008F6007108F7004E
:102576000C3076067704031DC22A0130CF2A0D30AF
:1025860076067704031DC92A0230CF2A0E30760656
:102596007704031DF12A033083160313D500003098
:1025A600D600F12A0C1CF12A0C100B308F00DC30FF
:1025B6008E000130F8070318F90A0030F9070030D9
:1025C6007902023003197802031CF12AF801F90195
:1025D600013083160313D7000030D8008B17750817
:1025E6008312FF0074088A0073088400720E830049
:1025F600FE0E7E0E090083120313A601A31F0A2BEB
:10260600A209A309A20A0319A30AA601A60AA11FE1
:10261600112BA009A109A00A0319A10A2108200467
:1026260003193E2BA501A50AA11B252B013003107A
:10263600A00DA10DFF3E031D1A2B0130A400240896
:10264600A507172B21082302031D2B2B2008220286
:10265600031C332B2008A2022108031CA303A30298
:1026660001300310A10CA00CFF3E031D342B0130DA
:10267600A502031D252B26080319462BA209A3092B
:10268600A20A0319A30A2308A101A1072208A0018F
:10269600A007080083120313AD01A81F592BA70931
:1026A600A809A70A0319A80AAD01AD0AAA1F642B37
:1026B600A909AA09A90A0319AA0A0130AB002B081D
:1026C600AD06AE01AF012808270403199B2BAC0108
:1026D600AC0AA81B7A2B01300310A70DA80DFF3EEC
:1026E600031D6F2B0130AB002B08AC076C2B0130A0
:1026F6000310AE0DAF0DFF3E031D7B2B28082A02EB
:10270600031D872B27082902031C902B2708A902E3
:102716002808031CAA03AA022E1401300310A80CD1
:10272600A70CFF3E031D912B0130AC02031D7A2B33
:102736002D080319A32BAE09AF09AE0A0319AF0A78
:102746002F08A801A8072E08A701A70708008312CB
:102756000313A21FD32B0030A6000030A700803041
:10276600A8002009A9002109AA002209AB00A90A8C
:102776000319AA0A0319AB0A2908A6072A08031887
:102786002A0FC62BC72BA7072B0803182B0FCC2BFA
:10279600CD2BA8072608A0002708A1002808A2001C
:1027A600A51FFA2B0030A6000030A7008030A80035
:1027B6002309A9002409AA002509AB00A90A0319BF
:1027C600AA0A0319AB0A2908A6072A0803182A0F1A
:1027D600ED2BEE2BA7072B0803182B0FF32BF42B4F
:1027E600A8072608A3002708A4002808A50080300B
:1027F600A2068030A50625082202031D080024082B
:102806002102031D0800230820020800003083125D
:102816000313AC000030AB000030AA000030A90062
:1028260023082204210420040319602CAD01AD0AFB
:10283600A31B2B2C0130A8000310A00DA10DA20D87
:10284600A30DA80B1F2C0130A8002808AD071B2CD0
:102856000130A8000310A90DAA0DAB0DAC0DA80BF5
:102866002D2C23082702031D422C22082602031DB5
:10287600422C21082502031D422C20082402031C99
:10288600532C2008A4022108031C210FA5022208AC
:10289600031C220FA6022308031C230FA7022914D8
:1028A60001300310A30CA20CA10CA00CFF3E031DCB
:1028B600542C0130AD02031D2B2C2C08A3002B0831
:1028C600A2002A08A1002908A00008008312031309
:1028D60023080319732C220821042004031D862CC7
:1028E6000030A0000030A1000030A2000800013036
:1028F600A5002508A30701300310A20CA10CA00C0B
:10290600FF3E031D7F2CFE3022050319A12C7A2CD5
:102916000130A5002508A3070130A00700300318E1
:102926000130A107003003180130A207013003105F
:10293600A20CA10CA00CFF3E031D9A2CFF30220511
:102946000319B02C8B2C0130A30201300310A00D0B
:10295600A10DA20DFF3E031DA92CA11FA62C231815
:10296600BA2CFF30A0057F30A105FF30A205031069
:10297600A30C2308A500A601A70110300310A50D7E
:10298600A60DA70DFF3E031DC12C2508A004260891
:10299600A1042708A204240803190800A2170800A6
:1029A600831203134D08D1004E08D2004F08D300FE
:1029B6000310520D530DD4005408DA00DA08031D33
:1029C600ED2C0030D0000030CF000030CE000030BB
:1029D600CD0008004D08D1004E08D2004F08D300A4
:1029E60017300310D30CD20CD10CFF3E031DF42C70
:1029F6005108D4005408D500CE17FF30CD05FF305E
:102A0600CE050030CF054D08D6004E08D7004F083A
:102A1600D800D9018E30DA02DA1F2F2D5A08803AF3
:102A26008F3E03181F2D0030D0000030CF0000303D
:102A3600CE000030CD00080001300310D90CD80CB0
:102A4600D70CD60CFF3E031D202D0130D1005108B6
:102A5600DA0703194A2D1F2D18305A02031C472D79
:102A66000030D0000030CF000030CE000030CD0066
:102A760008000130D1000310D60DD70DD80DD90DA1
:102A8600D10B3E2D0130DA02DA08031D3C2D550824
:102A96000319582DD609D709D809D909D60A031911
:102AA600D70A0319D80A0319D90A5908D0005808B1
:102AB600CF005708CE005608CD0008008312031336
:102AC6002008A6002108A7002208A8000310270D49
:102AD600280DA9002908AF00AF08031D7B2D003083
:102AE600A3000030A2000030A1000030A0000800C2
:102AF6002308A6002408A7002508A8000310270D10
:102B0600280DA9002908AE00AE08031D932D00303C
:102B1600A3000030A2000030A1000030A000080091
:102B2600A117FF30A005FF30A1050030A205A417AC
:102B3600FF30A305FF30A4050030A5050030AD0029
:102B46000030AC000030AB000030AA007F30AF028E
:102B560098302E07A6002608AF021830A6002608D1
:102B6600AE000130A6000310AA0DAB0DAC0DAD0DE5
:102B7600A60BB62D25082202031DC72D2408210207
:102B8600031DC72D23082002031CD42D2308A002F1
:102B96002408031C240FA1022508031C250AA202EF
:102BA6002A1401300310A00DA10DA20DFF3E031D36
:102BB600D52D0130AE02031DB42DAF1F002E2F08F8
:102BC600803A973E0318F02D0030A3000030A20093
:102BD6000030A1000030A000080001300310AD0C49
:102BE600AC0CAB0CAA0CFF3E031DF12D0130A60068
:102BF6002608AF0703191B2EF02D18302F02031CD1
:102C0600182E0030A3000030A2000030A1000030D2
:102C1600A00008000130A6000310AA0DAB0DAC0DF4
:102C2600AD0DA60B0F2E0130AF02AF08031D0D2E02
:102C36002D08A3002C08A2002B08A1002A08A0003A
:102C46000800831203133408BA003508BB0036089F
:102C5600BC0003103B0D3C0DBD003D08BE00BE0888
:102C6600031D3C2E0030B4000030B5000030B60025
:102C760008003708BA003808BB003908BC00031042
:102C86003B0D3C0DBD003D08C300C308031D522E7D
:102C96000030B4000030B5000030B600080043082C
:102CA6007B3EBA003A08BE073408BA003508BB00B6
:102CB6003608BC0010300310BC0CBB0CBA0CFF3E2F
:102CC600031D5E2E3A08BD003D08C3003708BA0052
:102CD6003808BB003908BC0010300310BC0CBB0C14
:102CE600BA0CFF3E031D702E3A08BD003D08C30610
:102CF6008030BA003A08C305B517B817FF30B705D4
:102D0600FF30B8050030B9050030BF000030C00004
:102D16000030C1000730BA003A08C200341CA12EA8
:102D26003708BF07380803110318380A031DC00700
:102D3600390803110318390A031DC10701300310AE
:102D4600B60CB50CB40CFF3E031DA22E01300310C9
:102D5600B70DB80DB90DFF3E031DAA2E0130C202F4
:102D6600031D912E0930BA003A08C200341CC92E40
:102D76003708BF07380803110318380A031DC007B0
:102D8600390803110318390A031DC107013003105E
:102D9600B60CB50CB40CFF3E031DCA2E0130031051
:102DA600C10CC00CBF0CFF3E031DD22E0130C20267
:102DB600031DB92E3F08A0004008A1004108A2004B
:102DC6003E08BA003A08A3004308BB003B08A4002B
:102DD6000A168A116924831203132008B4002108F5
:102DE600B5002208B6000800831203135408DA005F
:102DF6005508DB005608DC0003105B0D5C0DDD009A
:102E06005D08E0005708DA005808DB005908DC00C6
:102E160003105B0D5C0DDD005D08DF006008031923
:102E2600202F5F0860020318272F6003FF3A5F0711
:102E3600DA0019305A02031C272F5708D400580805
:102E4600D5005908D60008005F0803190800600875
:102E56005F020318362F5F03FF3A6007DA00193066
:102E66005A02031808000630DA005A08DE00D61B9C
:102E7600DE17D91B5E17D517FF30D405FF30D505F1
:102E86000030D605D817FF30D705FF30D8050030FB
:102E9600D9055F0860020318762F01300310D70D9D
:102EA600D80DD90DFF3E031D512F0130DF025F08FB
:102EB60060060319712F0130DE025E080739031917
:102EC600712F502F01300310D60CD50CD40CFF3EB9
:102ED600031D662F0130DA005A08E00760085F0616
:102EE60003199F2F652F60085F0203189F2F01307B
:102EF6000310D40DD50DD60DFF3E031D7B2F0130DB
:102F0600E0025F08600603199B2F0130DE025E08AF
:102F1600073903199B2F7A2F01300310D90CD80CCF
:102F2600D70CFF3E031D902F0130DA005A08DF0749
:102F360060085F06031D8F2FDE1FB12FFF30D406FA
:102F4600FF30D506FF30D6060130D407003003180F
:102F56000130D507003003180130D6075E1FC32F96
:102F6600FF30D706FF30D806FF30D9060130D70725
:102F7600003003180130D807003003180130D90794
:102F8600DE015408D707550803110318550A031D17
:102F9600D807560803110318560A031DD907D91F67
:102FA600E62FFF30D706FF30D806FF30D9060130AE
:102FB600D707003003180130D80700300318013056
:102FC600D907DE01DE0A5708A0005808A1005908F3
:102FD600A2006008DA005A08A3005E08DB005B085E
:102FE600A4000A168A116924831203132008D40048
:0A2FF6002108D5002208D6000800CB
:02400E0071FF40
:00000001FF
